:020000040002F8
:1070000078660020E1730200E9730200EB7302006E
:10701000ED730200EF730200F17302000000000044
:10702000000000000000000000000000F3730200F8
:10703000F573020000000000F7730200F97302000C
:1070400075760200FB730200297B0200FB730200CD
:10705000FB730200FB730200B5750200D5760200D7
:10706000FB730200117B0200FB730200FB73020042
:10707000FB730200FB730200FB730200FB73020050
:10708000FB730200BD760200FB730200FB7302007B
:10709000FB730200FB7302002D790200FB730200F8
:1070A000FB730200FB730200FB730200FB73020020
:1070B000FB730200FB7302000000000000000000F0
:1070C000FB730200FB730200FB730200FB73020000
:1070D000FB730200FB730200FB730200FB730200F0
:1070E000397B0200000000000000000000000000EA
:1070F00000000000FB73020000000000FB730200B0
:10710000000000000000000000000000000000007F
:10711000000000000000000000000000000000006F
:10712000000000000000000000000000000000005F
:10713000000000000000000000000000000000004F
:10714000000000000000000000000000000000003F
:10715000000000000000000000000000000000002F
:10716000000000000000000000000000000000001F
:10717000000000000000000000000000000000000F
:1071800000000000000000000000000000000000FF
:1071900000000000000000000000000000000000EF
:1071A00000000000000000000000000000000000DF
:1071B00000000000000000000000000000000000CF
:1071C00000000000000000000000000000000000BF
:1071D00000000000000000000000000000000000AF
:1071E000000000000000000000000000000000009F
:1071F000000000000000000000000000000000008F
:10720000DFF810D000F094F9004800471DD30200C9
:10721000AFF300807866002000B583B00290009143
:10722000019244F2010071466A4601F0EDF903B0A3
:1072300000BD000030B450E8012F93B2C48923444C
:107240008489A34228BF1B1B0489A34202BFBFF34A
:107250002F8F002007E0C3EA020340E80134002C2E
:10726000E9D14FF001000A6030BC704750E8012FAF
:10727000C2EA024240E801210029F7D1704730B448
:1072800050E8022F1FFAA2F3C488A34202BFBFF343
:107290002F8F00200DE0C48923448489A34228BF96
:1072A0001B1BC2EA034340E80234002CE8D14FF034
:1072B00001000A6030BC704750E8022FC2EA224247
:1072C00040E802210029F7D17047034653E8022F16
:1072D000D988B2EB324F4FF0000017BF92B241EAAB
:1072E000014142EA014104E05A68B2EB324F08BF63
:1072F000012043E80212002AE8D1704730B4044666
:1073000054E8000F0D4644E80053002BF8D11560F7
:1073100030BC704730B4044654E8000F40EA010521
:1073200044E80053002BF7D1156030BC704730B4EF
:10733000044654E8000F00EA010544E80053002B1E
:10734000F7D1156030BC704730B4044654E8000FE4
:1073500080EA010544E80053002BF7D1156030BCEA
:10736000704730B4044654E8000F00EB010544E8D0
:107370000053002BF7D1156030BC704730B4044681
:1073800054E8000FA0EB010544E80053002BF7D1AF
:10739000156030BC704770B404464FF0000054E8EC
:1073A000006F0D68AE4207BF44E80023012044E8A7
:1073B00000630E60002B1CBF0020F0E770BC70471C
:1073C00030B4044654E8000F88422CBF451A0546E5
:1073D00044E80053002BF5D1156030BC7047000025
:1073E0000648804706480047FEE7FEE7FEE7FEE75F
:1073F000FEE7FEE7FEE7FEE7FEE7FEE7457902006F
:10740000017202002DE9F05F0546002092469B467E
:1074100088460646814640241BE0284641464746AA
:10742000224600F02FF853465A46C01A914110D315
:1074300011461846224600F016F82D1A67EB01088F
:107440004F4622460120002100F00DF817EB0009FD
:107450004E41201EA4F10104DFDC484631462A4695
:107460004346BDE8F09F202A04DB203A00FA02F1EF
:10747000002070479140C2F1200320FA03F3194322
:1074800090407047202A04DB203A21FA02F00021C4
:10749000704721FA02F3D040C2F120029140084324
:1074A00019467047004870477876030040EA0103A8
:1074B0009B0703D009E008C9121F08C0042AFAD2AA
:1074C00003E011F8013B00F8013B521EF9D270476E
:1074D000D2B201E000F8012B491EFBD27047002216
:1074E000F6E710B513460A4604461946FFF7F0FFC3
:1074F000204610BD421C10F8011B0029FBD1801A48
:10750000704730B504460020034600E05B1C934200
:1075100003D2E05CCD5C401BF8D030BD034611F8CF
:10752000012B00F8012B002AF9D118467047000002
:10753000064C074D06E0E06840F0010394E80700C0
:1075400098471034AC42F6D3FFF75EFE50A5030017
:1075500070A5030070B58D1810F8014B14F00302EC
:1075600001D110F8012B231106D110F8013B03E0E3
:1075700010F8016B01F8016B521EF9D1ABB110F894
:10758000012B04F00C048A1A0C2C03D0A2EB8412F9
:107590009B1C08E010F8014BA2EB0422F8E712F85C
:1075A000014B01F8014B5B1EF9D5A942D4D3002051
:1075B00070BD00002DE9FC470026002000900190DE
:1075C0004FF480770125002410E0384607F0E0FDF5
:1075D00040B100BF25480068284018B1384607F080
:1075E000C9FD2E436D00381D87B2641C082CECD3F6
:1075F0004FF4BE7007F0CCFD50B14FF4BE7007F0F1
:10760000B9FD46F000466A460221002007F004FD5D
:10761000F0B210B3012500241DE005EA0600C0B158
:1076200000BF134850F82400C0F30520814600BF76
:107630000F4850F82400C0F301408246204602F073
:1076400061FB8046B8F1000F02D051464846C04762
:1076500000BF6D00641C082CDFD306F0004010B1A1
:1076600068460CF087FBBDE8FC870000046300401F
:107670001065004010B54FF4807006F074FF50B1F3
:107680004FF4807006F078FF012006F07FFF0A4873
:107690000168002088474FF4827006F064FF50B103
:1076A0004FF4827006F068FF022006F06FFF024878
:1076B00001680120884710BD8431002010B5034ABD
:1076C0001068034A1168884710BD0000C0310020CF
:1076D000BC310020FEB54FF4827008F003FB002897
:1076E00037D04FF4827008F007FB6C4890F82E00FA
:1076F00018B16A4890F82F0058B300208DF80000A8
:1077000066484068019065480189ADF80810C06876
:1077100018B900206149087412E06048008B5F4985
:1077200048830846C06848600846008B08810020EE
:10773000C860084690F82E0010B9002008F0F4FA4E
:1077400056480168684688470020544981F82F0050
:1077500000BF524890F82E00002852D04FF480709D
:1077600008F0C0FA00284CD04FF4807008F0C4FA3A
:107770004A48408B494991F82D10884216DD474808
:10778000408B464991F82D10401A444948830A46D7
:1077900012890B465B8BD21A0B465B6803EB4200E7
:1077A0000A4692F82D1008F089FA23E03B48408BF6
:1077B0003A4991F82D1088420FD13848C06860B11D
:1077C0000120364981F82F00002048830A4692F8AC
:1077D0002D10D06808F072FA0CE03048408B2F4929
:1077E00091F82D10884205D101202C4981F82F00F5
:1077F000002048834FF4827008F07EFA042008F0DD
:1078000093FA4FF4887008F06DFA70B14FF48870F5
:1078100008F072FA00202149087402208DF8000057
:10782000084601686846884700BF4FF48A7008F030
:1078300059FA38B14FF48A7008F05EFA00201749FF
:1078400008742AE01548456924E0B5FA85F64FF03A
:107850000040F0408543B00000F58C74204608F0ED
:1078600041FAB8B1204608F047FA01208DF800002F
:10787000A4F58C70C0F3C7008DF80400A4F58C70DB
:10788000012121EA90018DF805100448016868463D
:10789000884700BF002DD8D100BFFEBDE43A0020CC
:1078A00010B500F053F910BD2DE9F04707468846A2
:1078B0001646C24607EB47011B4800EBC109D9F841
:1078C000140020B1012811D0022826D11EE048461C
:1078D00000F074F90546B54201D2002405E03446B3
:1078E00032465146484600F0B0F918E0484600F0EC
:1078F00065F90546B54201D2284600E03046044607
:1079000022465146484600F0A0F908E0324651466A
:10791000484600F061F9044601E0002400BF00BFC2
:107920002046BDE8F08700000844002010B508F0AC
:1079300031FC10BD01480249086070470090D00337
:10794000B432002010B506F005FB40B100206849B4
:1079500008604FF08041C1F810016649086006F0E8
:1079600013FB002855D064480068644908606248E9
:10797000001D0068091D08605F4808300068091D87
:1079800008605D480C300068091D08605A481030D6
:107990000068091D0860584814300068091D086017
:1079A00055481830006855492031086052481C304D
:1079B0000068091D0860504820300068091D0860F3
:1079C0004D4824300068091D08604B482830006885
:1079D000091D086048482C300068091D08604648A9
:1079E0003030006845494031086043483430006811
:1079F000091D0860404838300068091D08603E488D
:107A00003C300068091D08603B4840300068091D93
:107A1000086006F06BFA40B13948006800F00100D8
:107A200018B16FF00100364908603648006840F42C
:107A300070003449086000BF00BF00BFBFF34F8F24
:107A400000BF00BF00BF00BF00BF00BFBFF36F8F0C
:107A500000BF00BF00BF00BF06F062FA20B12A4895
:107A6000006824492031086000BF274808380068B2
:107A700000F0004028B92448001F006800F00040D2
:107A800090B3012009F00AFC12201F490839086050
:107A900009F00EFC12214FF01020C0F8041209F07A
:107AA00007FC002009F0FAFB00BF00BF00BF00BFC9
:107AB00000BFBFF34F8F00BF00BF00BF11487C382D
:107AC000006800F4E06011490843001D0D497C394D
:107AD000086000BF00BF00BFBFF34F8F00BF00BFF3
:107AE00000BF00BF00BFFDE7FFE7FFF723FF10BDAA
:107AF0000C010040380500400404001020C500407F
:107B00000004004088ED00E0081200100000FA05B3
:107B100010B504220249034805F099F810BD000091
:107B2000143B00200090004010B5024908688047CF
:107B300010BD00008C31002010B5024902480EF043
:107B4000B1FC10BDC03A00200080024010B5124CBC
:107B500002202061606111A0A0611349E1614FF42E
:107B6000007121620021A1626162E1620BA0A06448
:107B70000E49E164102121650021A1656165E1657F
:107B80000BA1E01DFFF7CAFC0AA12046FFF7C6FCC7
:107B90002020A07110BD0000F04300205465726DDC
:107BA000696E616C00000000684400206846002097
:107BB00052545400534547474552000010B5014602
:107BC0000A69CB689A4204D88C68641EE41AA0182B
:107BD00001E0D41A601E10BD2DE9F0470446894625
:107BE00017464FF0000AE56800BFD4F81080A8459A
:107BF00003D9A8EB0500461E04E0A5EB0800401CD5
:107C0000A1680E1AA068401BB04201D9304601E0BD
:107C1000A068401B0646BE4201D2304600E038460E
:107C200006466168481932464946FFF73FFCB244B0
:107C3000B144BF1B3544A068A84200D10025E560CF
:107C4000002FD2D15046BDE8F0872DE9F047044619
:107C500089461546E668A068871BAF4208D9616867
:107C600088192A464946FFF721FC7019E06010E0A8
:107C7000B8466168881942464946FFF717FCA5EBEC
:107C8000070809EB070142466068FFF70FFCC4F8DC
:107C90000C80BDE8F08700000FB4054B10B503A9B8
:107CA000044A029800F008F910BC5DF814FB0000CB
:107CB0004FB602002832002002E008C8121F08C197
:107CC000002AFAD170477047002001E001C1121F5D
:107CD000002AFBD1704700000146202908DA012064
:107CE00088400A4A104008B1012070470020FCE794
:107CF000402909DAA1F12000012202FA00F008B1BE
:107D00000120F2E70020F0E70120EEE7FC06FFBDCE
:107D100000BFEFF31081084672B67047F8B505460C
:107D20000E46D6B9694628460AF0B2FF044643F229
:107D300002018C420AD000BF274637B100BF3B4A40
:107D4000B2213846FFF768FA00BF00BF9DF8000077
:107D5000C0F3400000B1F8BD00BF002128460AF082
:107D6000A9FF0446002C5ED0112C5CD00D2C21D133
:107D70002F49304A891AC908022242EA01402A469C
:107D80002D4907F0D7FC1321284676DF0446002C46
:107D900049D0204608F00EFB07462549254A891A96
:107DA000C908022242EA01402B463A4623A107F0C5
:107DB000CDFC38E00B2C0BD11D491E4A891AC9088D
:107DC000022242EA01402A462A4907F0B3FC2AE08F
:107DD00043F2020084420BD11549164A891AC90898
:107DE000022242EA01402A46234907F0A3FC1AE096
:107DF000204608F0DFFA07460D490E4A891AC908DD
:107E0000012242EA01402B463A461CA107F09EFCA3
:107E100000BF274637B100BF044AE1213846FFF7CB
:107E2000FBF900BF00BF00BF95E7000040970300CB
:107E3000C8A5030090A503007495030073645F62F6
:107E40006C655F6761705F646973636F6E6E6563B5
:107E50007428292072657475726E656420257320FC
:107E60006F6E20636F6E6E5F68616E646C65202557
:107E7000642E000034960300E89503004173736597
:107E80007274696E672E20706D5F636F6E6E5F73C4
:107E9000656375726528292072657475726E6564F4
:107EA000202573206F6E20636F6E6E5F68616E6455
:107EB0006C652025642E00002DE9FF4F8DB00F4624
:107EC0000546002606E025280BD0DDE90F12904775
:107ED0006D1C761C28780028F5D111B03046BDE81D
:107EE000F08F0024A246A1460122E94900E00443A4
:107EF00015F8013F203B02FA03F00842F7D1287839
:107F00002A2810D06FF02F022878A0F1300109291B
:107F100014D80AEB8A0102EB410144F0020400EBA1
:107F2000010A6D1CF0E701CF5FEA000A03D544F4B3
:107F30000054CAF1000A44F002046D1C28782E286F
:107F400017D115F8010F44F004042A280ED06FF061
:107F50002F022878A0F1300109290AD809EB8901FC
:107F600002EB410100EB01096D1CF2E757F8049B9D
:107F70006D1C28786C280FD006DC4C2817D0682898
:107F80000DD06A2814D104E0742810D07A280FD1BB
:107F90000DE044F400140AE044F4801401E044F4D9
:107FA00040146978814202D104F580146D1C6D1C67
:107FB00028786E281ED00CDC632830D004DC002822
:107FC0008BD0582811D19FE0642867D069280CD144
:107FD00064E073282DD004DC6F2872D0702804D19F
:107FE00094E075286ED078286DD0DDE90F129047A7
:107FF000761C4BE1C4F30250022806D0032809D0B6
:10800000042801CF09D0066040E101CFF117C0E993
:1080100000613BE101CF068038E1067036E117F8D8
:10802000040B8DF8000000208DF80100EB460120C4
:1080300003E057F804BB4FF0FF3061074FF0000139
:1080400002D40DE008F10101884649450FDA804568
:10805000F8DB1BF808100029F4D108E008F1010151
:1080600088468142FADB1BF808100029F6D1DDE9C9
:108070000F23AAEB08008146214600F031F9304475
:1080800000EB080604E0DDE90F121BF8010B904736
:10809000B8F10108F7D221464846F2E00A21C4F3BC
:1080A00002524FF0000B0891022A04D001CFC117F1
:1080B000032A09D00AE0FF1D27F00707F7E80201AD
:1080C00008E02CE01EE01FE000B2C117042A01D135
:1080D00040B2C117021E71F1000206DA0023D0EB94
:1080E000030063EB01012D2202E0220504D52B22BF
:1080F0008DF82420012203E0E20701D02022F7E7D7
:10810000904653E00A210BE0102109E010214FF0C6
:10811000000B44F004044FF00809089103E0082123
:108120004FF0000B0891C4F30252022A04D001CF91
:108130000021032A06D006E0FF1D27F00707F7E815
:10814000020103E080B2042A00D1C0B24FF000085F
:1081500022072BD52A78702A07D0DDF820C08CF0B2
:10816000100C5CEA0B0C05D00EE040228DF82420A8
:10817000012208E050EA010306D030238DF82430B4
:108180008DF8252002229046089B83F0080353EACD
:108190000B030BD150EA010201D1620706D5302250
:1081A0008DF824204FF00108A9F101092A78582AF6
:1081B00004D038A20B9208AA0A920BE03AA2F9E77F
:1081C0005B46089AFFF71EF90B9B9B5C0A9A521EAE
:1081D0000A92137050EA0102F2D10A98ADEB000046
:1081E00000F1200B600702D524F4803401E04FF049
:1081F0000109D94502DDA9EB0B0000E0002000EBEE
:108200000B0141440890AAEB010AE00306D4DDE922
:108210000F232146504600F063F806444FF0000952
:1082200008E009A911F80900DDE90F12904709F1EA
:108230000109761CC145F4DBE0030CD5DDE90F2311
:108240002146504600F04CF8064404E0DDE90F12E8
:1082500030209047761C0899481E08900029F5DCCC
:1082600008E00A980A990078491C0A91DDE90F1282
:108270009047761CBBF10001ABF1010BF1DC21460C
:108280005046DDE90F2300F019F806446D1C21E685
:1082900009280100303132333435363738396162DC
:1082A00063646566000000003031323334353637A0
:1082B0003839414243444546000000002DE9F04171
:1082C000044600251E461746880404D405E03946B6
:1082D0002020B0476D1C641EF9D52846BDE8F0810A
:1082E0002DE9F041044600251E469046C80301D5FD
:1082F000302700E02027880404D505E041463846B1
:10830000B0476D1C641EF9D52846BDE8F08131B533
:108310000025002406E02146684605F0FCFE00B179
:108320006D1C641C142CF6D3284638BD70B5054668
:108330000C4605B10CB9002070BD287840082178A2
:10834000B0EB510F01D00020F6E70622611C681C3B
:10835000FFF7D7F808B90120EEE70020ECE7014667
:1083600001F0030008B9012070470020FCE7024635
:1083700050680068401E084008B90120704700207E
:10838000FCE710B50346D868884206D88818401E16
:108390001C69A04201D8012010BD0020FCE70000AC
:1083A00010B504466CB10848C068A04209D8064818
:1083B0000069A04205D3204604F0F9FC08B1012071
:1083C00010BD0020FCE70000B832002010B50122EB
:1083D0000221002001F07CFB044600BF1CB1072CE9
:1083E00001D0204610BD00BF07220221012001F06C
:1083F0006FFB044600BF1CB1072C01D02046F1E7FB
:1084000000BF0A220021084601F062FB044600BFBB
:108410001CB1072C01D02046E4E700BF0020E1E7B3
:1084200030B5A5B03C2116A8FFF759F802208DF809
:10843000580001208DF85A0006208DF85B000120BD
:10844000ADF868002C491B912C48021D016816A844
:1084500000F014FD044600BF25463DB100BF28A230
:1084600040F2EF312846FEF7D7FE00BF00BF3C21A7
:1084700007A8FFF734F80120ADF82C001E490C9135
:108480001E4800F10C02816807A800F0F7FC0446C2
:1084900000BF25463DB100BF19A240F2F731284682
:1084A000FEF7BAFE00BF00BF182101A8FFF717F8BA
:1084B00001208DF80400002002904FF4C860039062
:1084C0000020ADF810008DF8180001208DF819007B
:1084D00001AA0A490E4872DF044600BF25463DB195
:1084E00000BF07A240F204412846FEF795FE00BFF8
:1084F00000BF25B030BD0000422C0020042C00201D
:108500002E2E5C2E2E5C2E2E5C6D61696E2E63000D
:10851000002C002038B501211448007873DF044690
:1085200000BF25463DB100BF11A240F2614128467F
:10853000FEF772FE00BF00BF1149124A891AC9082E
:10854000032242EA014010A107F0EAF80F20009050
:10855000684606F089FD05460121009A01FA02F0FD
:10856000C5F8080500BF00BF38BD0000002C002082
:108570002E2E5C2E2E5C2E2E5C6D61696E2E63009D
:1085800048A6030090A50300416476657274697380
:10859000696E672073746172742E000070B58CB0C0
:1085A00004460D461646002005E0C0F10F01615C4F
:1085B0000DF80010401C1028F7D30D2104A8FEF779
:1085C0008EFF002005E02A5CC0F10F0304A9CA5405
:1085D000401C0328F7D3684646DF002005E0C0F1C1
:1085E0000F0208A9895C3154401C0328F7D30CB052
:1085F00070BD000010B5044602480178204600F026
:10860000EBFD10BD543100202DE9FE4307460E4618
:10861000144672B600BF07F08DF900BF00BF06F028
:10862000F1FE0028FBD100BF00BF012F0CD06FF47A
:108630008050384498B1B0F5405F2CD06FF4405171
:108640000844002847D115E03149324A891AC9083F
:10865000012242EA014030A107F062F847E02C49CC
:108660002C4A891AC908012242EA014032A107F0C6
:1086700057F83CE025462649DFF898C0A1EB0C01ED
:10868000C9084FF0010C4CEA014034A1D5E9003291
:1086900007F05CF82BE02546A86807F08BFE8046C3
:1086A000D5E900108DE8430019491A4BC91AC908C9
:1086B000012343EA014043462FA1AA6807F080F84E
:1086C0001349144A891AC908012242EA014034A117
:1086D00007F026F80BE00E490E4A891AC908012254
:1086E00042EA0140324633A107F024F800BF00BF40
:1086F00000BF3648006800F0010000B100BE00BFB6
:1087000022463146384600F063F8BDE8FE8300009B
:1087100048A6030090A50300534F465444455649CC
:1087200043453A20415353455254494F4E20464108
:10873000494C454400000000534F465444455649B7
:1087400043453A20494E56414C4944204D454D4FF2
:108750005259204143434553530000004153534570
:108760005254494F4E204641494C454420617420A3
:1087700025733A25750000004552524F5220257549
:10878000205B25735D2061742025733A25750D0AE1
:1087900050432061743A203078253038780000004A
:1087A000456E64206F66206572726F72207265700C
:1087B0006F727400554E4B4E4F574E204641554CEC
:1087C000542061742030782530385800F0ED00E0F6
:1087D00018B5012300939DF800301E4B18605960B6
:1087E0009A606FF48043034463B1012B19D1194B94
:1087F000DA60DB681B68174CA3612346DB685B68A3
:10880000E3610EE0134B1A611B699B68114C6361B5
:1088100023461B691B68A36123461B695B68E361F0
:1088200000BF00BF0B4B1B680A4B5B68094B9B6882
:10883000084BDB68074B1B69064B5B69054B9B6963
:10884000044BDB6972B600BF9DF80030002BFBD1F2
:1088500062B618BD203B002070B504460D46204688
:1088600002F0FEFD28B12946204602F0EDFD002071
:1088700070BD0520FCE770B504460D46204602F0A9
:10888000EFFDA188884205D82946204602F0F6FD72
:10889000002070BD0420FCE710B5024801F0D6FFAF
:1088A00010BD00009831002030B503460C460AB9CF
:1088B000072030BD19684FF0FF358D60CD604A61EB
:1088C000012C01D1012000E0002008610020F0E728
:1088D00010B50446012003490870112007F0ACFFD1
:1088E00010BD0000702C002038B5134800680090BF
:1088F0000823582211491248006805F06AFB044613
:108900000CB1204638BD0F4A69460F4801F0A4FF5C
:1089100004460CB12046F5E701210B4802F042F86D
:1089200001230A4A1946084801F062FF012008495C
:1089300008702046E6E70000CC720300403B0020B0
:10894000BC7203005747030098310020FFFF7F00EF
:10895000A43100202DE9F84306460D4690463446E2
:1089600000200090684600F067F84FF0FF33D4E92C
:10897000021059405840014308D103F005FB40194B
:1089800041F10001C4E90201012700E000279DF840
:10899000000000F057F817B90020BDE8F883C4F8CC
:1089A0001880206900B12561214600200DF0B4FB3C
:1089B000F3E7F8B50446254600200090684600F02D
:1089C0003BF84FF0FF33D5E90210594058400143BE
:1089D00001D1002604E04FF0FF31A960E9600126D3
:1089E0009DF8000000F02EF80EB90020F8BD2946D1
:1089F00001200DF091FBF9E770B5044621460B48C4
:108A0000FFF739FF054675B9094805F06FFE50B903
:108A100008490648FFF720FF28B901220549044804
:108A200005F042FE0546284670BD0000A83D002026
:108A30000C3200202432002010B5044620460CF0F1
:108A4000ADF810BD70B5044625460E488068B0B13B
:108A5000ADB9FFF75DF906460A4800680A490860A3
:108A6000084840684FF0E021C1F8040100200549A2
:108A700088601EB900BF62B600BF00BF00BF00BF64
:108A800070BD0000A83B002000E100E0F8B50546FD
:108A90000C4617462088001DB84201D90C20F8BDAD
:108AA000684679DF064600BF304600B1F7E700BFF1
:108AB0000320218868542088401C208019202188A8
:108AC00068542088401C208020884119BDF800008F
:108AD0000DF088FD2188084420800020DFE77047E2
:108AE00070B505460C462068401C28B1206806F089
:108AF00020FB206806F05AFA6068401C18B100217B
:108B0000606806F039FA2868A169C0F8241500BF2A
:108B1000617D227D286841EA0203C0F86C3500BF00
:108B2000D4E90012286807F0A1FC207D012814D1A7
:108B3000A068401C18B10021A06806F01DFAE0688A
:108B4000401C28B1E06806F0F4FAE06806F02EFA5E
:108B5000D4E90221286807F071FC70BD70B50546A4
:108B60000C462068401C28B1206806F0EFFA206807
:108B700006F028FA6068401C18B10321606806F00E
:108B800008FA2868A169C0F8241500BF617D227D1C
:108B9000286841EA0203C0F86C3500BFD4E900122E
:108BA000286807F09DFC207D012814D1A068401C96
:108BB00018B10021A06806F0ECF9E068401C28B16B
:108BC000E06806F0C3FAE06806F0FCF9D4E9022197
:108BD000286807F066FC70BD70B504460D46204657
:108BE00004F014FA70BD10B50446637903F0030273
:108BF0002179208804F0C2F910BD10B5044620790F
:108C000018B9204600F008F803E02046FFF7EBFF14
:108C100000BF00BF10BD00002DE9FE4307463E889F
:108C20004FF00008002259480178304600F0EAFA77
:108C30007879C0F3800028B90021384609F0E0F9BE
:108C4000BDE8FE8306F5807188B201AB01220721E1
:108C500009F0F6FA0546C5B1284607F0ABFB814698
:108C60004B494C4A891AC908012242EA014033465D
:108C70004A46494906F06AFD294630460CF0B2FAE8
:108C80000021384609F0BCF9DAE7304603F024FD4C
:108C900004464FF6FF718C421BD1029803F06CFC26
:108CA00004464FF6FF70844213D02146304603F04D
:108CB000F1FC3046FFF79EFC58B930460CF026FA1E
:108CC0003046FFF797FC20B90021384609F098F9A3
:108CD000B6E74FF6FF7084421FD109F0C7FC044687
:108CE0004FF6FF70844212D129492A4A891AC908CD
:108CF000012242EA014029A106F012FD042130467A
:108D00000CF070FA0021384609F07AF998E721460C
:108D1000304603F0BFFC4FF0010806F5807188B2C1
:108D20002246072109F014FB054625B901213846E2
:108D300009F066F928E0862D07D130460CF018FAC4
:108D40000121384609F05CF91EE0284607F032FBA5
:108D500081460F490F4A891AC908012242EA014097
:108D600033464A461A49009406F000FD294630462B
:108D70000CF038FA0021384609F042F9B8F1000F3A
:108D800002D0204603F090FC00BF59E7513100208B
:108D9000D0A5030090A50300009A0300436F756CF3
:108DA00064206E6F7420616C6C6F63617465206EFB
:108DB000657720706565725F696420666F722069EF
:108DC0006E636F6D696E6720626F6E642E000000C7
:108DD0001C9B0300002114E00C48D0F81024012350
:108DE00008E000BFD0680079884201D1002303E089
:108DF000D0680268002AF4D100BF0BB10846704762
:108E0000491C0A29E8DB4FF0FF30F8E7D03F00208B
:108E10002DE9F04104460F46154615B90E20BDE870
:108E2000F0810020286000BF0CB90E20F7E700BFDA
:108E300000BF206808B90E20F1E700BF00BFE0883E
:108E4000C11700EB91718910A0EB810109B10720D6
:108E5000E5E700BF384600F015F9C6B2142E01D17F
:108E60000520DCE72079B04201DC0420D7E7E18867
:108E7000206806FB010028600020D0E72DE9FC41B6
:108E8000054688461646002437880020308095F82D
:108E90002D0058B13A463146404600F0D7F9044615
:108EA00000BF204608B1BDE8FC8100BFA87850B1E2
:108EB0003A4631464046FFF7E9FD044600BF2046EA
:108EC00000B1F0E700BFE87860B1E97848B23B460E
:108ED0003246414602F028FB044600BF204600B15E
:108EE000E1E700BF686868B1696891F900003B4636
:108EF000324641460DF0A1F9044600BF204600B1BC
:108F0000D1E700BF288900280EDD43460622022152
:108F100005F10800CDE900670DF074FC044600BFC0
:108F2000204600B1BFE700BF288A00280EDD434677
:108F30000722032105F11000CDE900670DF062FC66
:108F4000044600BF204600B1ADE700BF288B0028D3
:108F50000EDD43461522142105F11800CDE9006706
:108F60000DF050FC044600BF204600B19BE700BF57
:108F7000286A58B13B4632464146286A01F0A4F8B7
:108F8000044600BF204600B18DE700BF686A58B1B3
:108F90003B4632464146686A04F010FE044600BF74
:108FA000204600B17FE700BF95F82C0000280BDDBC
:108FB0003B463246414628460CF00CFB044600BFB7
:108FC000204600B16FE700BF287858B13B463246D3
:108FD0004146284604F0E1FE044600BF204600B1A9
:108FE00061E700BF20465EE72DE9F041044600BF7F
:108FF00014B90E20BDE8F08100BF1C2221461C4898
:10900000FEF754FA1B481A490860206860B12068CE
:109010007ADF05460DB12846ECE7164821680A6854
:1090200002604968416005E012487BDF05460DB1EA
:109030002846DFE7002617E006EB86000E4901EB25
:10904000800700BF4FF6FF70388000BF0B4800EB71
:10905000461078600A4A0021381DFFF725FC0546B6
:109060000DB10320C6E7761C022EE5D30020C1E730
:10907000783600202830002050360020103600209E
:109080000167030010B50446204600F0D1F808B18E
:10909000204610BD1420FCE710B50446204600F021
:1090A000C7F820B12146034805F035F810BD00206F
:1090B000FCE70000A436002070B504460D461646B5
:1090C00020460DF057FB08B9002070BD034951F848
:1090D00024003246294602F0A1FAF6E7B036002015
:1090E00010B50446204600F0A3F820B121460348FD
:1090F00005F011F810BD0020FCE70000AC360020A0
:1091000010B50446204600F093F820B121460348EC
:1091100005F001F810BD0020FCE70000A836002093
:1091200038B504460648C068C043009004488168CA
:10913000684605F02EF80099204600F07AFF38BD09
:109140009436002008B50648C068C0430090044823
:109150008168684605F01DF80098FFF7D8F808BD4B
:109160009436002070B504460025204600F060F8D3
:1091700050B12146054804F0CEFF06460EB102204C
:1091800000E00120054600BF284670BDA036002043
:1091900070B504460025204600F04AF850B121463B
:1091A000054804F0B8FF06460EB1022000E0012099
:1091B000054600BF284670BD9C36002010B518211A
:1091C000044804F078FF0446182C00D110BDE0B22A
:1091D000FCE700009436002070B505460C4620469A
:1091E0000DF0C8FA50B1284600F022F830B1044919
:1091F00001EB8400294604F08EFF70BD0020FCE7DF
:10920000B036002070B505460C46164620460DF0D7
:10921000B1FA50B1284600F00BF830B1034901EB28
:1092200084003246294602F070F970BDB036002045
:1092300010B50446142C01DB002010BD2146024865
:1092400004F069FFF9E70000983600202DE9FC41A1
:1092500005460C46174620880930B84202D90C2032
:10926000BDE8FC8168466DDF064600BF304600B1B0
:10927000F6E700BF0820218868542088401C208021
:109280001B20218868542088401C20802088284486
:10929000DDF801100160BDF8051081802088801D77
:1092A00020809DF80000400818B9002021886854EB
:1092B00002E00120218868542088401C2080002082
:1092C000CEE700002DE9F04F8BB004468B46002519
:1092D000A7883846FFF746FF8046FFF733FF8146F1
:1092E0002188944E56F821300A469349934E891BA3
:1092F000C908032646EA014091A106F027FA8E49E3
:109300008E4A891AC908032242EA01403A4692A1CC
:1093100006F010FA994951F828308749874A891A86
:10932000C908032242EA0140424695A106F00EFA1E
:109330002088212869D008DC10282CD011280BD0D7
:1093400013287DD019287CD18CE03B287AD0522874
:1093500079D05628F7D1CDE0207A914951F82000F4
:109360000090237A7449754A891AC908032242EA8F
:1093700001403A468BA106F0F9F9B9F1010F01D18C
:10938000FFF7C8F86846FFF7CBFE2C2269469248E3
:10939000FEF78CF8CAE0002622E006EB46008F4973
:1093A00001EB800040884FF6FF71884217D106EB31
:1093B00046018A4A02EB8100394605F06DF8054600
:1093C00000BFAA46BAF1000F07D000BF84A24FF435
:1093D00032715046FDF720FF00BF00BF02E0761C4F
:1093E000022EDAD300BFB9F1020F03D10F2005F02E
:1093F0002DFE01E0FFF78EF86846FFF791FE2C2264
:1094000069467548FEF752F890E04B494B4A891A75
:10941000C908042242EA014075A106F081F9002042
:109420000A90A0880AA98FDF054600BF2E4666B1C4
:1094300000BF6BA24FF43B713046FDF7EDFE03E039
:1094400005E072E03BE027E000BF00BF6EE03A4974
:109450003A4A891AC908032242EA014069A106F082
:109460005FF963E0207A58B9227A3349334BC91A3D
:10947000C908032343EA01406AA106F05BF90AE048
:10948000227A2D492D4BC91AC908032343EA01400A
:109490006CA106F04FF949E0A08800231A4619464E
:1094A000B1DF054600BF2E463EB100BF4CA240F2E0
:1094B00005313046FDF7B0FE00BF00BF36E01E4963
:1094C0001E4A891AC908042242EA014065A106F031
:1094D00027F9A088132176DF054600BF2E463EB14E
:1094E00000BF3FA240F20D313046FDF795FE00BFB0
:1094F00000BF1BE01049114A891AC908042242EA38
:1095000001405EA106F00CF9A088132176DF054624
:1095100000BF2E463EB100BF31A240F215313046A9
:10952000FDF77AFE00BF00BF00E000BF00BF0BB038
:10953000BDE8F08FE42C002048A6030090A50300AE
:10954000626C65206576656E74206964203D202517
:10955000643A202573000000626C6520676170200A
:109560006576656E7420636F6E6E656374206861E6
:109570006E646C65203D202564000000942E002060
:109580006C6F63616C2064657669636520726F6CD3
:1095900065206964203D2025643A20257300000081
:1095A000A02E0020446973636F6E6E6563746564FA
:1095B0002E20636F6E6E5F68616E646C653A20305A
:1095C0007825782C20726561736F6E3A203078258B
:1095D000782025730000000040330020E83200208E
:1095E0002E2E5C2E2E5C2E2E5C6D61696E2E63001D
:1095F0005048592075706461746520726571756595
:1096000073742E00424C455F4741505F4556545F8E
:109610005345435F504152414D535F52455155456B
:1096200053542E00415554482053554343455353FA
:10963000207769746820737461747573203A2025EB
:10964000642E000041555448204641494C5552452E
:10965000207769746820737461747573203A2025CB
:10966000642E00004741545420436C69656E742099
:1096700054696D656F75742E0000000047415454A5
:10968000205365727665722054696D656F75742E0E
:109690000000000070B505460E462888102802D04C
:1096A00011282CD115E01748006860B900F042FE7F
:1096B000044600BF34B11448006818B1204612496E
:1096C0000968884700BF0F480068401C0D490860C2
:1096D00016E00C480068401E0A4908600846006809
:1096E00060B9FEF773FE044600BF34B10648006857
:1096F00018B1204604490968884700BF00E000BF50
:1097000000BF70BD243000202030002070B504461A
:109710000D462088102806D0112808D012280ED017
:10972000502810D107E0204607F01AFE0CE0204632
:1097300008F016F808E0204608F00EFA04E020468B
:1097400007F0F6FD00E000BF00BF70BD2DE9F0415D
:1097500004460F46A6882088102806D0112819D064
:1097600019283FD01A284AD118E00AF04FFF304696
:109770000AF0C0FD30B900BF22A2F0210420FDF79D
:109780004BFD06E0E07B022803D131462C4804F073
:10979000D1FC34E030460AF05DFF30E0207A050964
:1097A000042D01DB012000E0002002463146244860
:1097B0000C3001F0AAFE032D01DB012000E00020A7
:1097C000024631461E48083001F09FFE022D01DBA3
:1097D000012000E00020024631461948001D01F03A
:1097E00094FE0CE0207A48B9607AC0F3C0052A469E
:1097F000314613480C3001F088FE00BF00BF00BFA7
:10980000BDE8F0812E2E5C2E2E5C2E2E5C2E2E5C62
:109810002E2E5C2E2E5C636F6D706F6E656E747392
:109820005C626C655C636F6D6D6F6E5C626C655FD6
:10983000636F6E6E5F73746174652E630000000069
:10984000A036002070B504460D4600BF0A480078D7
:1098500000B970BD00BF204603F032FA00B1F8E74E
:10986000204602F0F3FD20460BF0A6FF204602F052
:109870006BF900BFEDE70000643000202DE9F041F6
:1098800086B00446884617461D4600BF1CB90E2008
:1098900006B0BDE8F08100BF01AA29466069FFF764
:1098A000B7FA064600BF304600B1F1E700BF4FF6F9
:1098B000FF70854201D0019808B90520E8E70198BA
:1098C000007808B90820E3E73888142801DD07206C
:1098D000DEE700200290039004900590A088ADF888
:1098E0000800CDF81480049701208DF80A0002A921
:1098F0002846AEDFCCE7000070B58EB004460E46B9
:109900003E4B0FCB09AD0FC500BF14B90E200EB0F2
:1099100070BD00BF00BF0EB90E20F8E700BF306871
:10992000A061214609A862DF054600BF284600B1B4
:10993000EDE700BF20788DF836000120ADF8340047
:10994000A21C0DA9A8DF054600BF284600B1DEE72E
:1099500000BF202101A8FDF7C2FD0220ADF80400E0
:1099600020788DF806001420ADF808000120ADF82D
:109970000A008DF810009DF8110020F00800083052
:109980008DF811009DF8110020F00400001D8DF8E5
:10999000110001208DF815008DF81600608804F183
:1099A0000C0201A900F0FCF905460DB12846AEE70E
:1099B000202101A8FDF793FD0320ADF804002078D5
:1099C0008DF806001420ADF808000120ADF80A005B
:1099D0008DF810009DF8110020F0100010308DF867
:1099E000110001208DF815008DF816008DF8170074
:1099F0006088221D01A900F0D3F988E7E47503000F
:109A000070B504460D4605B104B970BD2E462088D8
:109A1000102804D0502807D057280FD109E021463C
:109A2000304607F0D5FC0AE02146304608F0C0F881
:109A300005E02146304607F0D5FF00E000BF00BF3B
:109A400000BFE2E770B5044620460CF0C5FD0546B0
:109A500005F0010070BD000038B506F059FB044662
:109A600000BF25463DB100BF15A24FF44A712846FC
:109A7000FDF7D2FB00BF00BF002000906946012027
:109A800006F064F9044600BF25463DB100BF0CA2B4
:109A900040F22E312846FDF7BFFB00BF00BF6846ED
:109AA00006F004FA044600BF25463DB100BF04A2FB
:109AB00040F232312846FDF7AFFB00BF00BF38BD92
:109AC0002E2E5C2E2E5C2E2E5C6D61696E2E630038
:109AD00030B503460020042B23D2012A07D10129E7
:109AE00003D103F10E04E4B200E00024224679B170
:109AF000012902D0022911D104E003EB43040A4DED
:109B00002A550DE003EB4304074D2C44627007E037
:109B100003EB4304044D2C44A27001E0072000BF76
:109B200000E0072030BD0000043600202DE9FC478E
:109B300004460D461646A71C4FF001080020019070
:109B400001A8FEF779FF3048406828602E48406839
:109B50002D498968411A2D480068401CA0EB010975
:109B600015E001212A4804F009FB03F071FB82464D
:109B70005146274804F002FB23484068224989687F
:109B8000411A22480068401CA0EB010900BF4F4564
:109B9000E7D8B8F1000F30D00021009176B10099DC
:109BA00021F00301491C0091009921F00401091DD5
:109BB0000091009964F3891100910DE0009921F062
:109BC0000301891C0091009921F00401091D0091F5
:109BD000009964F39F5100910B4949680B4A126840
:109BE0001140094A0C3202EB8100009901600649DC
:109BF000496839440C3A516000BF9DF80400FEF7F3
:109C000021FF4046BDE8FC87D03F00206C32002099
:109C1000EC43002070B504460D460A2D03D10D21FA
:109C20002046FFF7F7FFA168481CA0602068455454
:109C3000D4E90110884202D3204604F086FD70BDAD
:109C40000448806803494968884201D1012070476F
:109C50000020FCE7D03F00207CB50446204602F0FF
:109C60003BFD054600236A46092108F047FC05280C
:109C700005D10122024801782046FFF7C3FA7CBDD6
:109C8000403000207CB504460E460020019042F68C
:109C9000A620ADF8040001208DF8060007480068F2
:109CA00000906A4601A92046A0DF05462DB9012291
:109CB000034801782046FFF7A5FA7CBDF06F03004A
:109CC0004130002001468879012809D1087901280E
:109CD00006D1488842F60212904201D10120704715
:109CE0000020FCE74FF0FF31054A42F82010082819
:109CF00004DBFF23A0F108015A32535470470000DF
:109D0000083A00200146024850F821007047000040
:109D1000083A00202DE9F04F03460C464FF0FF397A
:109D20000AB1002000E0082084460AB1082000E0C3
:109D30000C208046614624E0154850F82100401C64
:109D4000F0B91D460846274616464FFA80FBDFF855
:109D500040A00AF1300A0AF805B0DFF834A04AF84A
:109D600020704EB94FFA85FBA0F1080ADFF820E019
:109D70000EF15A0E0EF80AB000BF4FFA81F902E058
:109D8000491C4145D8D300BF4846BDE8F08F0000CC
:109D9000083A00200146014840567047383A0020F2
:109DA00070B590B006460C461546A07818B901204B
:109DB0008DF80E0002E0A0788DF80E002088ADF836
:109DC0000C0000200290607C02A90BF095FCA07CA6
:109DD0000DF109010BF090FCE07B08B1012000E0DF
:109DE00000209DF80A1060F3C3018DF80A10207C52
:109DF00008B1012000E000209DF80A1060F3041172
:109E00008DF80A10207B08B1012000E000209DF8A9
:109E10000A1060F300018DF80A10207D08B10220BD
:109E200000E001209DF80A1060F342018DF80A104D
:109E30001C2109A8FDF753FB607BC0F3001018B983
:109E4000607BC0F34010F8B100200090E07C0DF181
:109E500001010BF051FC00BF9DF8000020F00F0045
:109E6000401C8DF800009DF8000020F0F00010303C
:109E70008DF8000000BF9DF8020020F00600801C55
:109E80008DF80200CDF838D0607B8DF82400A07BDF
:109E90008DF82500142104A8FDF721FB03A80490E8
:109EA00002A80590A088ADF81C00A06820B1E08849
:109EB000ADF81800A0680890A069002849D00020DB
:109EC0000190A0690088ADF82C00A0694088ADF829
:109ED0002E00A06940680A9001A80D90A169087B36
:109EE00001A90BF009FCA169487B0DF105010BF0FC
:109EF00003FCA069807A08B1012000E000209DF8F1
:109F0000061060F3C3018DF80610A069C07A08B18D
:109F1000012000E000209DF8061060F304118DF888
:109F20000610A069007A08B1012000E000209DF829
:109F3000061060F300018DF80610A069807B08B15F
:109F4000022000E001209DF8061060F342018DF828
:109F50000610E06908B1E0690C902B4604AA09A933
:109F60003046AADF10B070BD2DE9F04104460D4621
:109F70004FF6FF76304684420AD14FF4807128466E
:109F800004F099F886B2B6F5807F10D126460EE02F
:109F9000FF2C0CDC2146284604F076F880F00107FF
:109FA0000FB1204601E04FF6FF70064600BF304675
:109FB000BDE8F08170B505460DB9094C01E0084CCB
:109FC000083409E0204602F0FAFE064606B904E02D
:109FD00028467168884700BFF4E700BF70BD0000E5
:109FE000FC39002010B504462CB901200649487000
:109FF0000020FFF7DFFF012C04D101200249887007
:10A00000FFF7D8FF10BD0000F43900202DE9F0471C
:10A01000024613468C46D3E90245DCE90267B6EBFB
:10A02000040877EB050002D30120BDE8F08700208B
:10A03000FBE733B58BB00546002000900C9878B153
:10A0400000240BE021460CA804F065F828B1009A22
:10A05000501C009001A820F81240641C142CF1D36D
:10A060002C2269462846FDF721FA0DB030BD014685
:10A070000888062808DB0888B0F5486F06DD0888E0
:10A080004FF6FF72904201D007207047488806289B
:10A0900008DB4888B0F5486F06DD48884FF6FF7248
:10A0A000904201D00720F0E708884FF6FF729042F7
:10A0B00008D04888904205D008884A88904201DD3F
:10A0C0000720E2E70020E0E72DE9F04107460D46D2
:10A0D000144698462088801D404502D90C20BDE8D2
:10A0E000F0813846FFF7C3FF064600BF304600B197
:10A0F000F5E700BF0520218868542088401C208097
:10A100001220218868542088401C20802288511900
:10A1100038880CF067FA2188084420802288511979
:10A1200078880CF05FFA2188084420800020D6E768
:10A1300010B5044600BF04A24FF40D712046FDF790
:10A140006BF800BF10BD00002E2E5C2E2E5C2E2E54
:10A150005C6D61696E2E630030B587B01C21684666
:10A16000FDF7BDF9002000904FF4A03001904FF4AE
:10A17000F020029003208DF80C000020ADF80E00B6
:10A180008DF810000A4805900A4806906846FEF7C8
:10A190002BFF044600BF25463DB100BF06A240F29A
:10A1A0004B212846FDF738F800BF00BF07B030BD8F
:10A1B000F512030031A102002E2E5C2E2E5C2E2EF5
:10A1C0005C6D61696E2E6300F8B505460C46607AD9
:10A1D00088B9207A10B91048476801E00E488768AE
:10A1E0002A4639466068FEF7B5FB064616B130468A
:10A1F0000AF09EFF0EE0002020720748406948B137
:10A2000001208DF80000ADF802500348416968460E
:10A21000884700BFF8BD000078360020F0B585B053
:10A2200004460D4617461E4614220B496846FDF7A4
:10A230003DF9ADF802408DF80850ADF80A708DF880
:10A240000C600022054801782046FEF7DBFF6846D7
:10A2500000F0D4FD05B0F0BD1C71030051310020A9
:10A2600010B586B00446208807F080FE00BB208829
:10A27000FEF712FF30B92088012241F2060100F0FA
:10A280002EFC15E0208800220A490978FEF7BAFF63
:10A2900003208DF804002088ADF8060000208DF81A
:10A2A0000C0000218DF80D1001A800F0A7FD00BFE3
:10A2B00006B010BD51310020F8B505460E461948CC
:10A2C0000078A0B9184A00211848FEF7EDFA0446B4
:10A2D00000BF27463FB100BF154A40F2051138467E
:10A2E000FCF79AFF00BF00BF01200E490870002054
:10A2F0000090ADF800508DF8026010210B48009AD4
:10A300000068FEF727FB044600BF27463FB100BFA9
:10A31000074A4FF488713846FCF77EFF00BF00BF44
:10A32000F8BD000038310020C1A60200C47003004F
:10A330004097030010B5012200210846FFF7C8FB33
:10A34000044600BF1CB1072C01D0204610BD00BF41
:10A35000072202210120FFF7BBFB044600BF1CB10E
:10A36000072C01D02046F1E700BF04220221002083
:10A37000FFF7AEFB044600BF1CB1072C01D02046FE
:10A38000E4E700BF0020E1E72DE9FF4105460C4668
:10A3900029492A4A891AC908042242EA01402B465F
:10A3A000224627A105F0D2F9002002900390ADF8D3
:10A3B0000840ADF80A40009001906A4602A928467C
:10A3C00090DF0646002E32D0304605F0F3FF0746F8
:10A3D00019491A4A891AC908012242EA01403B4632
:10A3E0002A46234905F0B2F9BDF8000010B9BDF8BE
:10A3F000020068B1BDF80230BDF800200E490F4FD1
:10A40000C91BC908012747EA01401AA105F09EF9B6
:10A41000BDF8040058B1BDF804200749074BC91A1C
:10A42000C908012343EA0140224905F083F9304677
:10A4300004B0BDE8F0810000A8A5030090A50300CA
:10A440005570646174696E672064617461206C6525
:10A450006E67746820746F202575206F6E20636F9F
:10A460006E6E656374696F6E20307825782E0000FB
:10A470005491030054686520726571756573746545
:10A48000642054582F5258207061636B6574206C9F
:10A49000656E67746820697320746F6F206C6F6ECF
:10A4A000672062792025752F2575206F6374657488
:10A4B000732E0000A091030070B505460E460024DF
:10A4C00082E04349434A891AC908032242EA01400B
:10A4D000224641A105F02EF904EB440155F8312044
:10A4E0003B493C4BC91AC908032343EA014040A138
:10A4F00005F020F904EB440105EBC1010A79344968
:10A50000344BC91AC908032343EA01403CA105F0B2
:10A5100011F904EB440105EBC101CA882C492D4B0C
:10A52000C91AC908032343EA014039A105F002F919
:10A5300004EB440105EBC1010A7A2549254BC91AF0
:10A54000C908032343EA014036A105F0F3F804EB00
:10A55000440105EBC1014A891D491E4BC91AC908AE
:10A56000032343EA014034A105F0E4F804EB44017D
:10A5700005EBC101CA681649164BC91AC90803235D
:10A5800043EA014030A105F0D5F804EB440105EBA6
:10A59000C1010A7C0E490F4BC91AC908032343EABB
:10A5A00001402CA105F0C6F804EB440105EBC10104
:10A5B0004A690749074BC91AC908032343EA0140FE
:10A5C00028A105F0B7F8641CB442FFF47AAF70BD5F
:10A5D00048A6030090A50300676C6F62616C20645D
:10A5E000617461207072696E743A20256400000005
:10A5F0006672616D6520686561643A2025730000AC
:10A60000646F6F722073746174653A202564000072
:10A610006261747465727920766F6C746167653AF3
:10A620002025640077616B6520757020736F7572EB
:10A6300063653A202564000074696D652073746158
:10A640006D703A20256400006E756D6265723A2067
:10A65000256400006572726F7220636F64653A2032
:10A66000256400006672616D6520656E643A202580
:10A67000730000002DE9F04105460F460F4C012103
:10A68000204603F0B2FD064600BF00BF00BF00BF7A
:10A69000BFF35F8F00BF00BF00BF0EB9012000E015
:10A6A000002040B1284602F01FFD08B1BDE8F0814E
:10A6B000024805F059FA00BFF8E7000038300020E2
:10A6C00038B5044600949DF80210BDF80000FDF76F
:10A6D00025FB38BD70B50D490D4A891AC9080322FA
:10A6E00042EA01400BA105F01BF809F0ABFA044661
:10A6F00000BF25463DB100BF0AA24FF46371284652
:10A70000FCF78AFD00BF00BF70BD000048A6030033
:10A7100090A50300457261736520626F6E647321BA
:10A72000000000002E2E5C2E2E5C2E2E5C6D6169CA
:10A730006E2E630070B506460D4616B14FF4064006
:10A7400070BD287920B1012809D0022815D111E067
:10A7500002202871284609F02BFE044610E0284606
:10A7600000F096FE044648F20960844201D141F6A9
:10A770001D5405E041F61D5402E048F20E6400BF8E
:10A7800000BF2046DCE770B5044620793D2802D1A1
:10A7900041F23D0001E04FF4885005462088002238
:10A7A000294602F0EBFB70BD10B50021034803F011
:10A7B0001CFD044684F3100010BD0000EC43002093
:10A7C00070B505460C464FF4803000FA04F1284677
:10A7D00000F09AFA70BD70B505460C464FF4A070B3
:10A7E00000EB840086B23146284600F0ADFA70BD19
:10A7F0002DE9F04704460D4616461F464FF48030BB
:10A8000000FA05F84FF4A07000EB85001FFA80F9FC
:10A8100026F07F464146206805F046FA414620680A
:10A8200005F03CFA4946206805F031FA32462946DF
:10A83000206805F023FA4146206805F032FA1FB17E
:10A840004146206805F033FABDE8F08710B50446AC
:10A85000206805F018FA10BD2DE9F04704460D46B2
:10A8600017466079324941F820706079314901EB2F
:10A87000C000007968B108262F49304A891AC908F2
:10A88000022242EA01402EA104F04AFF3046BDE810
:10A89000F08729882068C0F8081500BF94F90420C3
:10A8A000AB7810461946002808DB4FEA417C4FEA96
:10A8B0001C68DFF8B0C00CF800800BE04FEA417C68
:10A8C0004FEA1C69DFF8A0C000F00F08A8F10408E7
:10A8D0000CF8089000BF00BF94F904100846002847
:10A8E0000DDB00BF00BF00F01F0301229A404309A7
:10A8F0009B0003F1E023C3F8002100BF00BF00BFAD
:10A9000000BF012061790B4A02EBC1010871607937
:10A91000114641F8304000260749084A891AC908FB
:10A92000032242EA014011A104F0FAFE3046AEE7EC
:10A93000BC310020C031002028A6030090A50300F0
:10A9400052544320696E7374616E636520616C724A
:10A950006561647920696E697469616C697A65649E
:10A960002E00000000E400E018ED00E05254433AED
:10A9700020696E697469616C697A65642E000000F3
:10A9800010B5014691F90400002807DB00F01F0311
:10A9900001229A40024B440943F8242000BF10BD15
:10A9A00000E200E070B505460C462246022128462A
:10A9B00000F0B6F970BD10B504464FF48271204620
:10A9C00000F0C2F910BD10B504460021206805F062
:10A9D00071F910BD10B504460421206805F06AF92C
:10A9E00010BD2DE9F84F04468846154699464FF4A8
:10A9F000803000FA08FA4FF4A07000EB88001FFACC
:10AA000080FB25F07F455146204600F07DF9206807
:10AA100005F039F906464146206805F029F900900D
:10AA200032464146206805F029F95946206805F06C
:10AA30002EF9314600980BF045FA012806D1102076
:10AA400005F09CFD5946206805F021F9206805F0C5
:10AA50001AF90646314628460BF034FA07465146A5
:10AA6000206805F01EF9012F0FD16A1C41462068AD
:10AA700005F004F9102005F081FD206805F003F9C8
:10AA8000B04225D00D20BDE8F88F2A464146206807
:10AA900005F0F4F8206805F0F6F80646681E314621
:10AAA0000BF010FA07466FF07F40A0EB0900B842A8
:10AAB00001D20D20E7E75FB96A1C4146206805F026
:10AAC000DDF8206805F0DFF8B04201D00D20DAE7AC
:10AAD00001225146204600F023F90020D3E770B54B
:10AAE00006460C4615462B46224600213046FFF707
:10AAF00095FB70BD2DE9F84305460E46174698466E
:10AB000069461048006803F078FA044614B9042036
:10AB1000BDE8F8831C212046FCF7E1FC01202071F0
:10AB20002560C4F8088008480068B6FBF0F0E060D3
:10AB3000676169460348006803F089FA09F048FB39
:10AB40000020E5E76C7303006073030010B5044652
:10AB5000D4E90321501828DF10BD0278072A38D223
:10AB6000DFE802F037040712222B340000220A70BB
:10AB700030E001220A7003898B818388CB81C2680F
:10AB80008A6000230B7425E002220A7003898B81FE
:10AB90008388CB81C2688A60827D062A01D1012325
:10ABA00000E000230B7415E003220A70C3888B8138
:10ABB0000389CB81C2688A600CE004220A70C388D2
:10ABC0008B810023CB8100228A6003E005220A707A
:10ABD00000E000BF00BF704770B50546002409E0E3
:10ABE000064850F8240020B1044850F824102846A4
:10ABF0008847641C042CF3D370BD0000B43B0020D4
:10AC000030B587B004460D462068806808B907B0A3
:10AC100030BD182101A8FCF762FC0295A0680690DF
:10AC2000207910B1012815D109E001208DF8040028
:10AC300020690390E0680490606905900BE00220B1
:10AC40008DF804000749E06809684843039060698B
:10AC5000059000E000BF00BF2068816801A8884718
:10AC600000BFD4E760730300F0B585B005460C461D
:10AC70001646002C3ED0112C3CD0082C3AD00D2C7E
:10AC800024D11D491D4A891AC908022242EA0140FD
:10AC90002A461B4904F04EFD2A460421684603F06B
:10ACA000F1F82EB1307800F0010008B1012000E089
:10ACB00002208DF8080000218DF80C1041F20111DE
:10ACC000ADF80A10684600F0ADF813E0204605F034
:10ACD00071FB07460849094A891AC908012242EA54
:10ACE00001402B463A46074904F030FD21462846EC
:10ACF0000AF08CFA05B0F0BDD8A5030090A50300BA
:10AD0000D89B0300E89C030070B504460D46294615
:10AD1000206804F0C3FF2946206804F0C5FF70BD19
:10AD200070B504460E4615463146206804F0B9FF5A
:10AD30001DB13146206804F0BAFF70BD10B504465D
:10AD4000204600F06FF810BD70B505460C46286827
:10AD5000015929B12146286804F099FF012070BDEE
:10AD60000020FCE770B50446608801F0B5FCA080C7
:10AD7000002505E0044850F82510204688476D1C42
:10AD8000002DF7D070BD00003030002070B50446B3
:10AD9000A08801F0D1FB6080002505E0044850F850
:10ADA0002510204688476D1C002DF7D070BD00008F
:10ADB0004430002070B50546002405E0044850F8F2
:10ADC000241028468847641C022CF7D370BD00006D
:10ADD0003070030070B50546002405E0054850F8C2
:10ADE000241028468847641C034800788442F5DB19
:10ADF00070BD0000A83900207230002070B50446F4
:10AE0000608801F069FCA080002505E0044850F846
:10AE10002510204688476D1C002DF7D070BD00001E
:10AE2000DC70030070B50546002405E0044850F8C6
:10AE3000241028468847641C002CF7D070BD000001
:10AE40005471030070B504462178454D55F8213002
:10AE50000A464449444D491BC908032545EA0140B7
:10AE600042A104F073FC207830B1012828D00328D7
:10AE700042D0042871D155E0606868B9012040498A
:10AE800008703849384A891AC908032242EA014041
:10AE90003CA104F045FC12E06168A1F506413E4D7D
:10AEA00055F821306168A1F506422E492E4D491B07
:10AEB000C908032545EA014038A104F047FC4DE0EC
:10AEC000606828B93B480078401C3A49087012E095
:10AED0006168A1F50641304D55F821306168A1F552
:10AEE00006422049204D491BC908032545EA014077
:10AEF0002AA104F02BFC31E0606890B16168A1F5F3
:10AF00000641254D55F821306168A1F506421549E5
:10AF1000154D491BC908032545EA01401FA104F04E
:10AF200015FC1BE0606818B901202349087012E085
:10AF30006168A1F50641184D55F821306168A1F509
:10AF400006420849084D491BC908032545EA014046
:10AF500012A104F0FBFB01E0FFE700BF00BF70BDE2
:10AF6000CC2F002048A6030090A503006664732040
:10AF70006576656E742069642025643A2025730027
:10AF8000712C002066647320696E69742073756388
:10AF9000636573732E000000E42F00206664732045
:10AFA0006572726F7220747970652025643A20256D
:10AFB00073000000732C0020722C002010B586B0A6
:10AFC0000446142101A8FCF78AFAA08900F07AFA55
:10AFD000ADF80800207806285ED2DFE800F05D03B7
:10AFE00004052E4A00BF00BFA08900F070FA18B90E
:10AFF000E08909F0FEFAF8B1E08909F0F7FA8DF876
:10B000000C002078032801D1012100E000218DF8F7
:10B010000D10A1680491606830B909208DF8040012
:10B0200001218DF8141004E00A208DF804006168F5
:10B03000059101A807F0AEF92FE0A08900F047FACA
:10B04000B0B1E089A0B9606838B90B208DF8040070
:10B05000BDF8080007F0EEFB04E00C208DF80400BA
:10B060006068039001201149087001A807F092F967
:10B0700013E0606818B914208DF8040004E015206E
:10B080008DF80400606803904FF6FF70ADF808007B
:10B0900001A807F07FF900E000BF00BF0348007877
:10B0A00008B107F00DFB06B010BD000051300020C4
:10B0B00038B505461048007810B948F2016038BD2F
:10B0C0004FF6FF70854202D148F20360F7E7684609
:10B0D00008F05EFF044614B948F20760EFE7052068
:10B0E000207001202071E580684608F061FF09F0BA
:10B0F00063F80020E3E70000C831002038B50E48AF
:10B10000007810B948F2016038BD684608F040FF89
:10B11000044614B948F20760F6E706202070684636
:10B1200008F046FF0548007810B101200349087374
:10B1300009F042F80020E7E7C8310020C03C0020B9
:10B1400070B586B0142101A8FCF7C9F93048007821
:10B1500028B101A8FFF740FD002006B070BD2C48C3
:10B16000001D03F004F808B10020F6E700F048FAEB
:10B1700006460EB13046F0E708F046FF06F03EFE08
:10B18000054625B1022D03D0062D12D107E000BFE0
:10B1900000201F490870486048F20A60DDE701207E
:10B1A0001B4908700020486001A8FFF715FD00202A
:10B1B000D3E700BF00BF684608F0EAFE044614B9B2
:10B1C00048F20760C9E7012020700C2D16D2DFE895
:10B1D00005F01506150715111512150A0E0B00BFFF
:10B1E000002020710BE000BF0320207107E0022047
:10B1F000207104E000BF0120207100E000BF00BF0B
:10B20000684608F0D5FE08F0D7FF0020A5E700004B
:10B21000C831002038B5044614B948F2046038BD7E
:10B220006946204609F0E2F808B3BDF8000000EBDB
:10B230008000114901EB8000C068A8B1A07A98B1E4
:10B24000BDF8000000EB800001EB8000C068401EEC
:10B25000BDF8001001EB8101074A02EB8101C860D3
:10B260000020A072002504E048F2056501E048F2E4
:10B2700009652846D3E70000983C00207FB51446B6
:10B280001D462B46224601A9684609F047F804B03E
:10B2900070BD37B50C4615462B4622466946002040
:10B2A00009F03CF83EBD37B50C4615462B46224604
:10B2B0000021684609F032F83EBD024602B111B9DC
:10B2C00048F204607047106808600020FAE7000048
:10B2D000F8B504460D4604B115B948F20460F8BD4E
:10B2E0006946204609F082F8A0B16668BDF80010F2
:10B2F00001EB8101094A02EB810101F10C000121FE
:10B3000002F03CFF2E6060680C3068600120A07283
:10B310000020E4E748F20960E1E70000983C0020E3
:10B3200070B504460D4614B948F2046070BD03239D
:10B330000022294620460BF0C1FCF7E770B5044611
:10B340000D4602230022294620460BF0B7FC70BDB3
:10B3500070B5054609480068042802D148F20B641C
:10B3600009E007480549096840F8215001210348D0
:10B3700002F004FF0024204670BD0000D4310020FC
:10B38000B43B00202DE9F84304464FF480680026C2
:10B390002B48007818B948F20160BDE8F88314B969
:10B3A00048F20460F9E712212046FCF798F80320E0
:10B3B000208000253FE005EB8500224901EB80005D
:10B3C000008905EB85011F4A02EB81014989084488
:10B3D00087B205EB850102EB8101486806F08AFC23
:10B3E000032802D12088401E2080608805EB85015B
:10B3F000144A02EB8101C96808446080208905EB8A
:10B40000850102EB81014989084420816089384423
:10B410006081C7F5806086B2A089B04200DAA6815B
:10B4200004F11000831EA21D211D0090284609F082
:10B4300033F9681C85B2022DBDDB0020ADE70000AA
:10B44000C8310020983C002070B504460D462A46BD
:10B450000021204600F009F8A068401CA06070BDE3
:10B4600001468A68C868801A704710B583680B4423
:10B47000848823400468E35C137010BDC26883882D
:10B480001A4003689954C268521CC2607047000099
:10B490003EB504460A4B6A460021A01D08F03EFF57
:10B4A000054635B9064A9188019809F019F805460C
:10B4B00003E0034800210160416028463EBD0000D2
:10B4C000E43100200146A1F5404080B270470146BA
:10B4D000B1F5404F05DB4FF6FE70814201DC0120E3
:10B4E00070470020FCE710B504462078182802D1E8
:10B4F000FDF764FE207010BD10B5044620781828B2
:10B5000002D1FDF75BFE207010BD70B505460E46FA
:10B51000144624B13146284602F00CFE03E03146C1
:10B52000284602F0A2FD70BD30B504461088C01C4C
:10B53000984201D90C2030BD02201588485510884A
:10B54000401C10800120158848551088401C108030
:10B5500015884C551088401C10800020EBE7000037
:10B560002DE9F04106460C4615460027112C01D165
:10B57000012700E0002765B13A460A4801783046C5
:10B58000FDF740FE0022084801783046FDF73AFEFC
:10B5900005E03A46044801783046FDF733FEBDE841
:10B5A000F08100006F3100206C31002010B54FF4A5
:10B5B000405400F009F80349086108460069001B7F
:10B5C000C86010BDB832002010B540F6F8700068B1
:10B5D000401C18B94FF01020406902E040F6F870A6
:10B5E000006803464FF0805001694269581C08B159
:10B5F000184601E002FB01F00446204610BD0000A1
:10B6000010B5FFF7D3FF00220249034803F05CFAAC
:10B6100010BD000070730300B8320020F7B50D466E
:10B6200017460DB90020FEBD0026009868B1002421
:10B6300009E02146684602F06EFD18B1A0B2394615
:10B64000A847761C641C142CF3D33046EBE770B586
:10B6500004460D46E0B2FDF7CFF9204670BD10B5A7
:10B660000446606808F0FEFC10BD00003EB500BF57
:10B670009DF8000020F00F00401C00909DF8000095
:10B6800020F0F0001030009000BF182218A168468A
:10B690007CDF044600BF25463DB100BF1BA24FF42E
:10B6A00083712846FBF7B8FD00BF00BF0020019062
:10B6B00002904FF4C870ADF804004000ADF80600E9
:10B6C0000020ADF808004FF4C870ADF80A0001A8DA
:10B6D0007ADF044600BF25463DB100BF0BA24FF400
:10B6E0008A712846FBF798FD00BF00BF3EBD0000F1
:10B6F0004D756C74695065726970686572616C5FD4
:10B7000054656D706C617465000000002E2E5C2E17
:10B710002E5C2E2E5C6D61696E2E630070B5044642
:10B720000D46288840F67721884210D1A888C01E8F
:10B730000D4908800D490E4A891AC908032242EAB8
:10B74000014009490B880A880AA103F0FFFF2388FA
:10B7500062880649064E891BC908042646EA01404C
:10B760000BA103F0F3FF70BD402C002048A603009E
:10B7700090A5030044617461206C656E206973209C
:10B7800073657420746F203078255828256429004B
:10B79000415454204D54552065786368616E676547
:10B7A00020636F6D706C657465642E2063656E74C4
:10B7B00072616C20307825782070657269706865D8
:10B7C00072616C20307825780000000070B5114956
:10B7D000114802F0B1FD044600BF25463DB100BF4F
:10B7E0000EA240F24D312846FBF716FD00BF00BF08
:10B7F0001721094802F092FD044600BF25463DB1DD
:10B8000000BF06A24FF454712846FBF705FD00BFA8
:10B8100000BF70BD1DB70200CC3200202E2E5C2E62
:10B820002E5C2E2E5C6D61696E2E630070B5054630
:10B8300015B14FF4064070BD1848007B18B10020C8
:10B840001649087301E000F0DFF814480078082872
:10B850001DD2DFE800F01C04080C101C141800F0C6
:10B860003FF8044616E000F0BDF8044612E000F090
:10B8700099F804460EE000F047F804460AE000F0AC
:10B8800035F9044606E000F043F9044602E048F2C8
:10B890000E6400BF00BF2046CDE70000C03C002082
:10B8A0000D480089401C0C4908810020488008731D
:10B8B00000BF0DE000EB8001084A12F8211009B921
:10B8C000012200E0002204490A310A54411C88B2D6
:10B8D0000228EFDB70470000C03C0020983C0020AD
:10B8E00010B5084800F036F840B900200549891E17
:10B8F00008704880486041F61D5010BD00F072F895
:10B90000FBE70000C23C002070B50F48458805EBFE
:10B9100085000E4901EB8000C06878B904200A490F
:10B92000087005EB8500094A02EB80000023012224
:10B930004168074803F010F8044602E000F090F870
:10B940000446204670BD0000C03C0020983C00200A
:10B95000B832002010B501460022002018E00F4B3D
:10B960001B5C9BB100240D4B1C5400EB80030C4C62
:10B9700004EB8303DB684BB900EB800304EB830328
:10B980001B7C012B02D10880012203E0431C98B2EA
:10B990000228E4DB00BF104610BD0000CA3C0020B6
:10B9A000983C0020F8B50C4844680C4800680B49E6
:10B9B000898800EB81056088C01C86B20320064997
:10B9C00008700020B30000900846294642680448E9
:10B9D00003F03AF9F8BD0000C03C0020DC31002043
:10B9E000B832002010B507494888091D08F03CFD11
:10B9F00018B1FFF7D7FF044602E0FFF785FF0446C2
:10BA0000204610BDC03C002010B51448007808281E
:10BA100020D2DFE800F0041F1F0A1016171BFFF7E3
:10BA20003FFF01200D49087015E000F07DF802206D
:10BA30000A4908700FE000F029F80620074908704D
:10BA400009E000BF07200549087004E00120034910
:10BA5000087000E000BF00BF10BD0000C03C002027
:10BA600010B505200649087002200649888008465E
:10BA7000002301220168044802F06EFF10BD00009F
:10BA8000C03C0020DC310020B83200201449086896
:10BA90001449498801EB8101134A02EB810149688D
:10BAA0000F4A11600F49498801EB81010E4A02EBF0
:10BAB000810148600A4989880A4A528802EB820259
:10BAC000094B03EB820211810221054A918000217A
:10BAD000044A528802EB820203EB8202117470471F
:10BAE000DC310020C03C0020983C002010B506202E
:10BAF00005490870498801EB8101044A02EB810184
:10BB0000486806F059F910BDC03C0020983C002060
:10BB100010B50720034908700020486006F05CF962
:10BB200010BD0000C03C0020054A50684288D21C6D
:10BB300091B2044A92880A44024B9A8070470000EE
:10BB4000C03C0020DC3100202DE9F04186B00446E5
:10BB5000A688208850282ED004DC352836D03628F8
:10BB600008D189E0522802D05428F9D103E03046A8
:10BB700001F04CFAB9E01422634901A8FBF796FCE6
:10BB8000ADF80660304600F0A7FDADF80800BDF83E
:10BB9000080000F057FA00225C4801783046FDF7B3
:10BBA00031FB00225A4801783046FDF72BFB01A8F3
:10BBB000FFF7D8F899E0A01DFEF784F828B101211D
:10BBC000304601F085FA0AF081FD8EE00027A68854
:10BBD00004F10A054F4801783046FDF7FDFA00B937
:10BBE00083E000224B4801783046FDF70BFBE088EC
:10BBF000B0F5857F3AD0E08858B1E2884649474B96
:10BC0000C91AC908022343EA014045A103F092FD85
:10BC10002CE0288801280AD02A883F493F4BC91ABE
:10BC2000C908022343EA01404CA103F083FD688860
:10BC300001280BD06A883849384BC91AC908022331
:10BC400043EA014054A103F075FD0FE0A9880022EA
:10BC50003046A1DF8046B8F1000F06D1012701224E
:10BC60005C4801783046FDF7CDFA00BF1FB90021CE
:10BC700030460AF0B1F838E00027A68804F10A053A
:10BC8000544801783046FDF7A7FA00B92DE00022AC
:10BC9000504801783046FDF7B5FAE08858B1E2889F
:10BCA0001D491E4BC91AC908022343EA01401CA1C1
:10BCB00003F040FD14E0A88801280BD0AA8816499B
:10BCC000164BC91AC908022343EA014032A103F006
:10BCD00031FD05E0A87908B1012000E00020074609
:10BCE000394630460AF078F800BF00BF00BF002296
:10BCF00039493A480078FDF7DFF900BF09F078FBD1
:10BD000006B0BDE8F0810000047003003F30002061
:10BD10003E3000204130002090A5030090A5030094
:10BD2000556E65787065637465642047415454208E
:10BD3000737461747573207768696C6520676574C6
:10BD400074696E6720434152206368617220766196
:10BD50006C75653A20307825780000004D756C745C
:10BD600069706C652028256429204341522063684E
:10BD70006172616374657269737469637320666F5D
:10BD8000756E642C207573696E6720746865206613
:10BD9000697273742E000000556E65787065637467
:10BDA0006564204341522063686172616374657207
:10BDB00069737469632076616C7565206C656E6764
:10BDC000746820282564292C2073746F72652030D4
:10BDD0002E00000042300020D98B02003D300020B0
:10BDE00010B50446207858B9608801F00FF96088D2
:10BDF00009F0EEFA6088FDF72FFF0AF067FC00E01B
:10BE000000BF00BF10BD000010B500F0CBFDFDF776
:10BE1000D5F92A490870FDF7D1F929490870FDF7CD
:10BE2000CDF928490870FDF7C9F927490870FDF7D1
:10BE3000C5F926490870FDF7C1F925490870FDF7D5
:10BE4000BDF9244908701D480078182817D01C48EF
:10BE50000078182813D01B48007818280FD01A48EB
:10BE6000007818280BD019480078182807D01848EF
:10BE70000078182803D00846007818280BD11649F6
:10BE8000164A891AC908012242EA0140144903F0FE
:10BE900047FC032010BD00BF00201249086000BF0E
:10BEA00000BF00BF00BFBFF35F8F00BF00BF00BF78
:10BEB00000BF01200C4908700020EBE73C30002057
:10BEC0003D3000203E3000203F3000204030002038
:10BED000413000204230002090A5030090A50300CF
:10BEE000CC8D030038300020343000207CB504466F
:10BEF0002078092840D1607A00283DD1207A012895
:10BF000014D0072802D0082834D12BE0A08800F0F4
:10BF100013FB05464FF6FF70854206D001212846E7
:10BF200001F0D6F82846FDF797FE24E0A0886A467F
:10BF3000012106F023F906469EB90198007880B1E8
:10BF4000A08800F0F9FA05464FF6FF70854207D049
:10BF500001220B4801782846FDF754F909F048FA08
:10BF600000BF08E007480068012802D1054803F037
:10BF7000FBFD00E000BF00BF0AF0A8FB7CBD000095
:10BF80003E3000203830002070B50B48FEF75EFCD4
:10BF90000A4B0CCB841843F10005094903C9201A48
:10BFA00075EB010004D24FF08073E41845F10005F1
:10BFB0002046294670BD000098310020A83100209D
:10BFC000B0310020014800687047000004150140AE
:10BFD00038B504F0C5FB044600BF25463DB100BF9F
:10BFE00012A240F28A412846FBF716F900BF00BFB3
:10BFF00012480068009003208DF80100104A69463D
:10C00000142004F031FB044600BF25463DB100BFBB
:10C0100006A24FF492612846FBF7FEF800BF00BF6E
:10C020000121142004F0CAFA38BD00002E2E5C2E27
:10C030002E5C2E2E5C6D61696E2E6300906F030086
:10C0400041C702001CB50446044903C9CDE90001FB
:10C0500000226946204606F09FFA1CBD28700300A6
:10C0600010B500F0A5FC012001490870002010BDAA
:10C07000483000202DE9FC470546284600F02CFBFF
:10C0800006460027B8464FF003094FF0010A4FF665
:10C09000FF7086420DD06A460821304606F06EF8E1
:10C0A000044634B90198871DB0F80480D0F8009098
:10C0B00000BF00BF4B46424639462846B1DF044622
:10C0C000042C01D1112422E0082C01D100241EE00F
:10C0D0000B2C1CD14FF0000A09F0020010B14FF0F8
:10C0E000010914E017B9B8F1000F04D00027B846D1
:10C0F0004FF003090BE00A490A4A891AC9080122CC
:10C1000042EA01402A46084903F014FB03240B2CA1
:10C11000D0D0BAF1000F00D10B242046BDE8FC8737
:10C1200098A5030090A50300949003002DE9FF5FFC
:10C130008046404600F0D0FA06464FF6FF70864231
:10C1400004D143F2020004B0BDE8F09F4FF00109B2
:10C150004FF0000A00BF4FF0000A4A46511C1FFA78
:10C1600081F902AB0821304606F06AF80446002C3B
:10C1700077D1039D032028602A1DA91D40462B6806
:10C18000B2DF0446002C4AD16A460821304605F049
:10C19000F5FF04469CB1052C11D0204604F00AF9A5
:10C1A00007463549354A891AC908012242EA014041
:10C1B00043463A4632A103F0C9FA0320C3E7052CEF
:10C1C0000BD0A88801998988884206D1AA8801984D
:10C1D000811DA81DFBF795F930B132460821304684
:10C1E00006F0B6F8044619E00821304606F0A0F83B
:10C1F00007460FB90B2410E0384604F0DBF88346FD
:10C200001D491E4A891AC908012242EA01405B46BB
:10C210003246294903F09AFA032400BF1FE00C2C90
:10C2200002D14FF0010A02E0052C00D100240821C0
:10C23000304606F07DF8074687B1384604F0BAF874
:10C2400083460D490D4A891AC908012242EA014074
:10C250005B463246184903F079FA032400BF03E035
:10C26000FFE7072C00D10C24BAF1000F7FF473AF65
:10C2700000BF204667E7000098A5030090A50300D3
:10C280007064625F706565725F646174615F707431
:10C29000725F67657428292072657475726E6564B3
:10C2A00020257320666F7220636F6E6E5F68616E0B
:10C2B000646C653A202564001490030010B50446B0
:10C2C000044800884FF6FF71884201D009F09CF8BD
:10C2D00010BD00004A300020FEB5044602A80190BF
:10C2E000204600F0F9F906466A460121304605F07D
:10C2F00045FF05460DB10020FEBD01980078FBE723
:10C300002DE9F04105464FF6FF761648B3DF0446A7
:10C310008CB1204604F04EF807461349134A891A97
:10C32000C908012242EA01403A46114903F002FAE3
:10C330000320BDE8F08100BF4FF6FF720948018875
:10C340002846AFDF044643F20300844204D1054887
:10C350000088401C0349088043F203008442EBD06C
:10C360002046E6E74C30002098A5030090A5030086
:10C37000C88F030070B504460D46204600F01DF836
:10C38000A84201D9022070BDA0884FF6FF718842F3
:10C3900004D0208810B1A068401C08B90120F2E741
:10C3A0000020F0E7024613468B4204D21868401C76
:10C3B00008B1012070470020FCE701464A8801F1DE
:10C3C0000C0000EB820070473EB504460D46207815
:10C3D0000221B1EB500F01D000203EBDB4F80100A6
:10C3E000ADF80800E0788DF80A00A188ADF80010DB
:10C3F000A0798DF8020001AA69462846FCF7CEF81C
:10C40000032201A902A8FBF77CF808B90120E4E7A0
:10C410000020E2E770B504460D46142C03DA2046EE
:10C42000FCF706FF10B943F2020070BD04EB840074
:10C43000054901EB4000D0F802102960C188A980AD
:10C44000007AA8710020F0E71037002030B591B0D5
:10C4500005462888102801D011B030BD2C22291D96
:10C4600006A8FBF723F84FF6FF749DF81C00032184
:10C47000B1EB500F35D006F039F89DF81C0040089C
:10C4800020B1012803D0022828D114E000BF09E020
:10C49000049800F1110107A8FBF748FF10B1BDF89F
:10C4A000144006E003AA05A9072005F0E9FF0028CB
:10C4B000EED100BF13E008E00498411C07A8FFF785
:10C4C00083FF10B1BDF8144006E003AA05A90720B8
:10C4D00005F0D6FF0028EFD100BF00E000BF00BF8D
:10C4E00000BFBDF8180000EB8000124921F8104091
:10C4F000BDF8180000EB800001EB40000799C0F880
:10C500000210BDF82010C1809DF8221001724FF674
:10C51000FF7084420CD0BDF81800ADF80600ADF8ED
:10C52000084000208DF8040001A8FEF743FC00BF7E
:10C5300000BF91E71037002070B505464FF6FF7039
:10C54000854200D170BD00240EE004EB840009494F
:10C5500031F81000A84205D12046FCF769FE08B169
:10C560002046EFE7601C84B2142CEEDB4FF6FF7020
:10C57000E8E70000103700203EB505460C4605F000
:10C58000B5FF0BE0BDF80800A04207D0284601998E
:10C5900000F00EF810B1BDF808003EBD6A4602A9D1
:10C5A000072005F06DFF0028ECD14FF6FF70F4E78F
:10C5B0002DE9F04704460D4604F1110605F1110777
:10C5C0001022691C601CFAF79CFF48B9601C00F03F
:10C5D000E2FB28B1681C00F0DEFB08B1012000E09E
:10C5E0000020824639463046FBF7A0FE8046307870
:10C5F0000221B1EB500F10D030780321B1EB500F76
:10C600000BD038780221B1EB500F06D038780321D7
:10C61000B1EB500F01D0012000E000208146B8F1BD
:10C62000000F02D0B9F1000F05D1BAF1000F05D00B
:10C63000B9F1000F02D10120BDE8F0870020FBE72F
:10C640000246108808B101207047002105E0901CC7
:10C65000405C08B10120F7E7491C0829F7D3002006
:10C66000F2E770B505460C462846FFF7E9FF08B922
:10C67000002070BD28882188884201D00020F8E77A
:10C680000822A11CA81CFAF73CFF08B90120F0E71A
:10C690000020EEE7142804DA00EB8002014B23F8B7
:10C6A000121070471037002070B506463046FFF76D
:10C6B00043FF0446304605F06DFD054645B9142C90
:10C6C00006DA4FF6FF7004EB8401024A22F81100EB
:10C6D000284670BD1037002010B50446142C03DA2C
:10C6E0002046FCF7A5FD10B94FF6FF7010BD04EB16
:10C6F0008400024931F81000F8E7000010370020EC
:10C700003EB5044605F0F2FE10E0019800F1460146
:10C710002046FFF7A6FF30B9019800F12A01204614
:10C72000FFF79FFF10B1BDF808003EBD6A4602A9A1
:10C73000072005F0A5FE0028E7D14FF6FF70F4E7CB
:10C7400070B504460D46024804F0A8FA70BD00001A
:10C75000686F030070B504460D46094860600948DB
:10C7600001F005FD50B903F02DFD064908741C23A6
:10C770008C2205490548006801F02BFC002070BDA3
:10C7800060730300783D0020DC3C00206C730300E4
:10C790002DE9F04106460C4648F20E6836B10020FD
:10C7A000404948604FF40640BDE8F081207930B13F
:10C7B00001280AD0022831D0032866D13CE00120AC
:10C7C000207105F009FB804660E00027002518E095
:10C7D00005EB8500344911F8200002280FD1002014
:10C7E00005EB8501304A02F82100012705EB8501A0
:10C7F00002EB8101486805F0DFFA804603E0681C1F
:10C8000085B2022DE4DB00BF3FB901202549087045
:10C810000020486041F61D50C6E737E00020207137
:10C82000022022498880084600230122016820480E
:10C8300002F092F8804629E0002020711D484588CA
:10C840001A48076805EB8500174901EB800040682E
:10C850001649086005EB8500134901EB800047602D
:10C860001248808805EB85010F4A02EB810108819F
:10C8700002200E498880002005EB850102F8210086
:10C88000384605F099FA804600E000BF00BFB8F1D5
:10C89000000F05D000200349486048F20D6083E78F
:10C8A000002081E7C8310020983C0020DC310020C6
:10C8B000B8320020C03C0020024600210CE001EB11
:10C8C0008100074B33F82000904204D101EB810036
:10C8D00003EB80007047491C0229F0D30020F9E7E0
:10C8E000503600202DE9FC5F83460E4691461F46D8
:10C8F000DDE90C45002E01DA704200E03046824648
:10C900004FF0010803E09AFBF9FA08F10108CA4563
:10C91000F9DA474500D9B84634B1002E03DB05F0FB
:10C920000400042800D1641E05F0020000B167B1C4
:10C9300005F0010048B944B104E0641E20215846C6
:10C94000FDF768F90CB1A045F7D3002E05DA764261
:10C950002D215846FDF75EF907E005F00400042894
:10C9600003D12B215846FDF755F905F002000228A6
:10C970000DD105F0010050B94FB944B104E0641E77
:10C9800030215846FDF746F90CB1A045F7D33B4698
:10C990004A4631465846CDE9004509F03BFEBDE820
:10C9A000FC9F0000002001490870704734300020CF
:10C9B0000020034908704FF6FF7002490880704755
:10C9C000483000204A30002010B5002407E004EB76
:10C9D0004401044A02EB81000AF049F9641C042C6A
:10C9E000F5D310BDF837002010B50446402120468D
:10C9F000FAF775FD10BD00004FF6FF700249088080
:10CA00000020024908607047703000206830002024
:10CA100070B505461249286803F016FD286803F032
:10CA2000C1FD04462046002817DB00F01F0201214B
:10CA300091400C4A430942F8231000BF00BF00BFD9
:10CA4000BFF34F8F00BF00BF00BF00BF00BF00BFDC
:10CA5000BFF36F8F00BF00BF00BF00BF00BF70BD3E
:10CA60008402020080E100E070B5054612492868A2
:10CA700003F01DFD286803F099FD044620460028B8
:10CA800017DB00F01F02012191400C4A430942F8D4
:10CA9000231000BF00BF00BFBFF34F8F00BF00BF18
:10CAA00000BF00BF00BF00BFBFF36F8F00BF00BF5C
:10CAB00000BF00BF00BF70BD1003420080E100E076
:10CAC0002DE9F04104460E464FF48E71206803F0C4
:10CAD000AEFC4FF4A271206803F0A9FC1A4920684B
